:1000000000800020BD010000B52400006D24000028
:100010006D2400006D2400006D2400006D2400009C
:100020006D2400006D2400006D240000B524000044
:10003000B52400006D2400000538000009380000D8
:10004000B5240000B5240000B5240000B52400004C
:10005000B5240000B5240000B5240000B52400003C
:10006000B5240000B5240000B5240000B52400002C
:10007000B5240000B5240000B5240000B52400001C
:10008000B5240000B5240000B5240000B52400000C
:10009000B5240000B5240000B5240000B5240000FC
:1000A000B5240000B5240000B5240000B5240000EC
:1000B000B5240000B5240000B5240000B5240000DC
:1000C000B5240000B5240000B5240000B5240000CC
:1000D000B5240000B5240000B5240000B5240000BC
:1000E000B5240000B5240000B5240000B5240000AC
:1000F000B5240000B5240000B5240000B52400009C
:10010000B5240000B5240000B5240000B52400008B
:10011000B5240000B5240000B5240000B52400007B
:10012000B5240000B5240000B5240000B52400006B
:10013000B5240000B5240000B5240000B52400005B
:10014000B5240000B5240000B5240000B52400004B
:10015000F5380000093900001D3900003139000070
:10016000B5240000392B0000B5240000B5240000A0
:10017000B5240000B5240000B5240000B52400001B
:10018000B5240000B5240000B5240000B52400000B
:10019000B5240000B5240000B5240000B5240000FB
:1001A000B5240000B5240000B5240000B5240000EB
:1001B000B5240000B5240000B5240000564B4CF2D5
:1001C000205210B51A804DF628121A8000BF00BFC9
:1001D00002F074F9514B4FF010621A60504A9A6065
:1001E000504ADA60504A136813F4807304D14F49BF
:1001F0000B604FF4A85313604D4B1A78110703D5C9
:100200001A7842F008021A704A4B4B492A221A7097
:100210004A4A4B4B8B4204D252F8040F43F8040B6A
:10022000F8E7484B484900228B4202D243F8042B9E
:10023000FAE74649464A002352F8230041F82300D2
:1002400001336F2BF8D1434B434A802103F8011B44
:100250009342FBD1414B3D4A1A60414B8A221A70AE
:10026000A3F5805324225A70A0221A709A7992071B
:10027000FCD59A79D406FCD43A4A937903F00C035E
:10028000082B384BF9D103221A7140225A719A79FE
:100290009006FCD5334A9179324B4906FBD5324A58
:1002A000324911600221516020221A709A7902F0BD
:1002B0000C020C2AFAD12E4B2E4A1A602E4B2F4AD2
:1002C0001A6000225A60072243F8042C2C4AC3F813
:1002D0000C2D62B602F006FB144B1B68DA0705D53D
:1002E000284802F067F9284B284A1A60284B1B78E7
:1002F0005B0609D5244C254B22689A4204D121483B
:1003000002F058F90023236002F0DEF804F02EFE1C
:1003100003F04EFCFEE700BF0E2005403080044095
:10032000823F04000100002B10D0034014D0034092
:1003300002D0074000E00740C091FF1FA48B0000DF
:100340002087FF1FC091FF1F18B6FF1F0082FF1FED
:100350000000000000E400E05FE400E008ED00E0E1
:100360000050064000400640448004400000030165
:1003700004800440C010050014E000E0FF76010096
:10038000000020202BCA6B631CE00340A5C3945AD5
:1003900000F00740FFFFFFFFFFFFFFFFFFFFFFFF32
:1003A000FFFFFFFFFFFFFFFFFFFFFFFFFFFFFFFF5D
:1003B000FFFFFFFFFFFFFFFFFFFFFFFFFFFFFFFF4D
:1003C000FFFFFFFFFFFFFFFFFFFFFFFFFFFFFFFF3D
:1003D000FFFFFFFFFFFFFFFFFFFFFFFFFFFFFFFF2D
:1003E000FFFFFFFFFFFFFFFFFFFFFFFFFFFFFFFF1D
:1003F000FFFFFFFFFFFFFFFFFFFFFFFFFFFFFFFF0D
:10040000FFFFFFFFFFFFFFFFFFFFFFFFDEF9FFFF23
:1004100010B5054C237833B9044B13B10448AFF33E
:1004200000800123237010BDC091FF1F0000000059
:10043000A08B0000084B10B51BB108490848AFF36A
:1004400000800848036803B910BD074B002BFBD0A0
:10045000BDE81040184700BF00000000C491FF1F16
:10046000A08B0000C091FF1F00000000014B012283
:100470001A7070473687FF1F014B01221A707047B0
:100480003D87FF1F10B5044603F012FA204610BD49
:1004900070B5044608460D4605F0B2FA23680246D8
:1004A000294620465B68BDE87040184738B50446C9
:1004B00008460D4605F0A4FA2368024629465B6803
:1004C000204698470546204603F03CFA284438BDAC
:1004D00038B5054603F08AFA0446284603F032FA96
:1004E000204438BD2DE9F0410546402001F000FED2
:1004F000023D1E4F1E4EA846002487FB04232344C2
:10050000E117C1EBE311282002F068F84023013B1A
:10051000FDD1172001F02AFE04F6FF74B44228F83A
:10052000020FEAD1114F124E002487FB042323440B
:10053000E117C1EBE311282002F050F84023013B02
:10054000FDD1172001F012FE35F8023F184400EBF0
:10055000D07004F6FF744010B4422880E5D1054BFA
:10056000BDE8F041187801F0C3BD00BF81808080F4
:1005700000FF0F003C87FF1FF0B400240C802346CF
:100580001480851E0E8835F8024F30F816709EB222
:10059000A74238BF0E80178838BF2C8830F81770F4
:1005A0000133A74288BF1680B3F5807FEAD1F0BC43
:1005B000704700BF2DE9F04F85B004AA002422F84F
:1005C000024D03A9ADF80C400190FFF7D5FFBDF82F
:1005D0000C20BDF80E3030F8126030F81370674D03
:1005E000DFF8B0B1DFF8B0A1DFF8B09143E0BDF8BB
:1005F0000C20634BC2EB023283FB02131344D2176D
:10060000C2EBE3131FFA83F8A5F80080384604F024
:100610005FFA4FF07F5104F0AFFA4FF07E5104F0D3
:10062000A3F904F06FFCABF80000304604F050FA78
:10063000544904F0A1FA4FF07E5104F093F904F00C
:1006400061FC514BB9F80010B3F800E0AAF80000C3
:100650008E45724628BF0A46904506D38E4572469F
:1006600038BF0A46424528BF42460134B4F5805F90
:1006700025F8022B7FD0A642B9D3A74202D9BDF8F4
:100680000E20B6E7019A002106E0B2F800E0A64588
:100690004ED2FF2B194638D032F8020B4B1CA04229
:1006A0009BB224D0F1D3F4D9B2F800E0A645F0D83B
:1006B000334AC3EB0333C1EB013182FB038C82FB72
:1006C00001829C440A44DB17C917C3EBEC1CA1EB65
:1006D000E2126244011BCEEB000301FB02F292FB2B
:1006E000F3F363441FFA83F8A5F800808EE7244BE8
:1006F000C1EB013183FB01230B44C917C1EBE313A9
:100700001FFA83F8A5F8008080E70A211F4802F04D
:1007100053FF1F4803F016F900230A2221461C4804
:1007200003F024F91A4803F00DF9B5F800806DE7DD
:10073000134AC1EB013182FB018CC3EB033382FB13
:1007400003828C441A444FEAEC1CC917DB17C3EB35
:10075000E213CCEB01021344C1EB0C01221A02FBA1
:1007600003F2C0EB0E0092FBF0F30B441FFA83F888
:10077000A5F800804AE705B0BDE8F08FF491FF1FAF
:100780008180808048E17A3F3E87FF1FD87F00004C
:100790006087FF1F2687FF1F2487FF1FF6B1FF1FFB
:1007A00000B585B003900291019203A800210422B4
:1007B000009301F0D7FD0422114602A801F0D2FDFA
:1007C00004220DEB0200082101F0CCFD04221421CB
:1007D000684601F0C7FD05B05DF804FB2DE9F04166
:1007E0000F4616461D4600F1FF380024204601F052
:1007F0009FFD0134042C08F8010FF7D1013F20467A
:1008000001F096FD0134082C07F8010FF7D1013EE5
:10081000204601F08DFD01340C2C06F8010FF7D1B4
:10082000013D1424204601F083FD0134182C05F805
:10083000010FF7D1BDE8F08138B505464FF40074DB
:10084000A4F50070022221462844144401F08AFDD8
:10085000B4F5806FF4D138BD08B5074A074B084995
:1008600008481B68006812680968FFF799FF064886
:10087000BDE80840FFF7E0BFE891FF1F3087FF1F8A
:100880003887FF1F2887FF1F50B2FF1F70B506462D
:10089000451C4FF40074204601F04AFD05F8010C98
:1008A000601C01F045FD0234B4F5806F05F8020BC1
:1008B000F1D13046BDE87040FFF77CBE08B5054871
:1008C000054B064A0649FFF789FF0648BDE8084080
:1008D000FFF7DCBF2887FF1F3087FF1FE891FF1F4E
:1008E0003887FF1F50B2FF1F2DE9F041002117206C
:1008F00001F082FF0121282001F07EFF022100206B
:1009000001F07AFF384B394D1878394C394F01F0E6
:10091000EFFB0C2001F0B8FB0C2001F05DFF002084
:1009200001F08CFB2968344840F2EE2623783BB175
:100930000378DA0704D52B683A689B1A0E2B07D880
:100940002B6822785B1A002A3DD0B3F5FA6FEDD9F7
:100950002A4E2B4A96F8203001211170EBB1264F18
:10096000DFF89080237883B13B78DB070DD52B68C7
:10097000D8F8002023489B1A0E2B4FF01F0104D9F2
:1009800002F01AFE204802F0DDFF4FF47A7001F009
:100990005BFF96F82030002BE4D109211B4802F0C0
:1009A0000BFE194802F0CEFF194A1A491A4802F004
:1009B00035FF1A4B1A4A1B68591E914206D9BDE8E9
:1009C000F041FFF77BBFB342B0D9C1E703EB43026D
:1009D0001201013A232AF2D91249134802F01EFFEC
:1009E000BDE8F041FFF76ABF3C87FF1FA8B4FF1FB7
:1009F0008CB5FF1F10B6FF1FA4B5FF1F00B2FF1F6D
:100A000044B2FF1FF07F00006087FF1FE47F0000FB
:100A1000FF3D49007904000048B2FF1F2C87FF1FEB
:100A2000575555056D0400003CB2FF1FFFFFFFFF47
:100A3000F0B53D2187B0044604F0FEFD05460028D0
:100A400000F07481002303709549204604F06CFE89
:100A5000002800F09D809349204604F065FE0028A0
:100A600000F0CD809049204604F05EFE002800F0A2
:100A70003F828E49204604F057FE002800F0508245
:100A80008B49204604F050FE002800F0CC808949B4
:100A9000204604F049FE0546002800F0A68286495B
:100AA000204604F041FE002800F0228383492046BE
:100AB00004F03AFE002800F042838149204604F009
:100AC00033FE002800F048827E49204604F02CFEC8
:100AD000002800F052837C49204604F025FE0028BF
:100AE00000F0F8837949204604F01EFE002800F04B
:100AF00044847749204604F017FE002800F054840F
:100B00007449204604F010FE0546002800F0CA840F
:100B10007149204604F008FE0546002800F0D984FB
:100B20006E49204604F000FE002800F019856C494B
:100B3000204604F0F9FD002800F02A856949204686
:100B400004F0F2FD002800F034856749204604F0E7
:100B5000EBFD002840F01685E01C04F0F7F963492E
:100B600004466348FFF794FC211C18BF012160482C
:100B7000FFF7AEFC002C00F0A5855E495C48FFF74E
:100B800095FCFFF769FE5C495948FFF78FFC34E09C
:100B9000E01C04F0D7F903F091FE584C584D20604A
:100BA00003215848584E594F02F006FD206803F0C3
:100BB00039FB4FF0040E02460B46CDF800E04C48DE
:100BC00002F01EFF4A4802F0BDFE3868246836680D
:100BD0002D6801220C230292019303F075FF214638
:100BE000009033462A464A4801F082F804464848B5
:100BF00000F0DEFF002C00F08B8107B0F0BDE01CA0
:100C000004F0A0F903F05AFE3D4D3C4C286003214E
:100C100040483D4E3D4F02F0CFFC286803F002FBF8
:100C20004FF0060EC7E7E01C04F08CF918A3D3E9D7
:100C3000002303F04BFB18A3D3E9002303F070FC5F
:100C400003F01CFE344C20803448092102F0B4FC2F
:100C5000208803F03DFF324903F08EFF314904F054
:100C60003FF803F0DFFA042502460B4600952048C2
:100C700002F0C6FE2C48032102F09EFC21881C488D
:100C800002F0B4FE1A4802F05DFE07B0F0BD00BFEE
:100C90000000000000FEAF400000006066660A40F1
:100CA00010800000188000002080000028800000D4
:100CB0002C800000348000004C8000006080000028
:100CC000648000007C80000080800000988000002C
:100CD0009C800000AC800000C0800000E480000028
:100CE000F4800000FC8000003081000034810000AE
:100CF0006087FF1F38810000208100003887FF1FB8
:100D00002887FF1F14800000E891FF1F3087FF1F16
:100D100000B2FF1F1C8000003487FF1F54800000BA
:100D20003333534000F07F45308000003F212046A0
:100D300004F082FC0646002800F054820570C04989
:100D4000204604F0F1FC002800F0DC81BD4920467B
:100D500004F0EAFC002800F0E881BB49204604F0DA
:100D6000E3FC002800F0FF81B849204604F0DCFCD9
:100D7000002800F0DF80B649204604F0D5FC0028AA
:100D800000F0D880B349204604F0CEFC0546002888
:100D900000F0CE82B049204604F0C6FC002800F0E6
:100DA000E881AE49204604F0BFFC002800F0E18154
:100DB000AB49204604F0B8FC002800F0CC82A949D9
:100DC000204604F0B1FC002800F0C582A649204668
:100DD00004F0AAFC002800F05383A449204604F044
:100DE000A3FC002800F04C83A149204604F09CFCA1
:100DF000002800F000849F49204604F095FC054639
:100E0000002800F01C849C49204604F08DFC00283A
:100E100000F04D849949204604F086FC05460028E0
:100E200000F01D849649204604F07EFC054600280B
:100E300000F064842046934904F076FC002840F0DA
:100E4000A18306AA904C002322F8023D204605A962
:100E5000ADF81430FFF790FBBDF81620BDF8143044
:100E600034F8126089498A4834F81350FFF710FBB0
:100E70003146874802F0BAFD86498548FFF708FBEE
:100E8000304603F025FE844903F076FE834903F0E3
:100E900027FF03F0C7F9042402460B4600947C4860
:100EA00002F0AEFD7E497A48FFF7F2FA7D497848B4
:100EB000FFF7EEFA2946764802F098FD7549744826
:100EC000FFF7E6FA284603F003FE734903F054FEE9
:100ED000724903F005FF03F0A5F9009402460B46A2
:100EE0006B4802F08DFD70496948FFF7DFFA84E630
:100EF000E01C04F027F803F0E1FC6C4E6C4C306011
:100F000003216C486C4D6D4F02F056FB30684EE685
:100F10001A216B4802F050FB5D4802F013FD6CE6AD
:100F2000E01C04F00FF803F0A9FC664C09212080B6
:100F30006548A1E6634C6448092102F03DFB208826
:100F400003F0C6FD544903F017FE544903F0C8FEF0
:100F500003F068F9022587E6E01C03F0F3FF34A3F1
:100F6000D3E9002303F0B2F933A3D3E9002303F05C
:100F7000D7FA02460B462EA1D1E9000102F0F2FF9A
:100F800003F07CFC514C0F212080514802F014FBEF
:100F9000208803F09DFD404903F0EEFD3F4903F03A
:100FA0009FFE03F03FF904240B46024600943848A4
:100FB00002F026FD0321474802F0FEFA464B18884E
:100FC00003F086FD344903F0D7FD344903F088FE71
:100FD00003F028F9009402460B462D4802F010FD5C
:100FE00001213E4802F0E8FA07E6E01C03F0AEFFFC
:100FF000324F3B4C3B4B2D4E02460F213A48B3FB40
:10100000F2F33A60236002F0D7FA2B4639682048A1
:10101000274C294D0A2202F0A9FC0221334802F094
:10102000CBFA1B4802F08EFCCFE500BFAFF3008087
:101030000000000000FEAF400000006066660A404D
:101040001080000018800000208000002880000030
:101050002C800000348000004C8000006080000084
:10106000648000007C800000808000009880000088
:10107000C0800000AC8000009C8000007C810000EB
:10108000FC800000D881000050B2FF1FDC8100000E
:101090006087FF1FE48100003333534000F07F4539
:1010A000E8810000F0810000F8810000E891FF1F56
:1010B0003887FF1F248000002887FF1F3087FF1F0D
:1010C000608100003487FF1F54800000F6B1FF1FCD
:1010D00068800000308000003E87FF1F788000009D
:1010E0002C87FF1F40420F0038800000488000001E
:1010F000E01C03F027FF03F0C1FBB94C0D21208059
:10110000B848B9E50321B84802F056FAB74B186859
:1011100003F088F8042402460B460094B44802F019
:101120006FFCB34802F00EFC67E50321B14802F002
:1011300043FAB14B186803F075F80624EBE7E01C9E
:1011400003F000FFA2A3D3E9002303F0BFF8A2A39A
:10115000D3E9002303F0E4F903F090FBA04C0D2148
:101160002080A04872E50321A44802F025FAA44B90
:10117000E0E79B4C9B480D21DFE6E01C03F0E2FE1C
:1011800093A3D3E9002303F0A1F893A3D3E90023A9
:1011900003F0C6F90B4602468DA1D1E9000102F029
:1011A000E1FE03F06BFB974D0F212880964802F07B
:1011B00003FA964B188803F08BFC954903F0DCFC8E
:1011C000944903F08DFD03F02DF8042402460B46EC
:1011D0000094874802F014FC03218F4802F0ECF9D8
:1011E0002888EDE633218D4802F0E6F9804802F0C8
:1011F000A9FB21218A4802F0DFF97D4802F0A2FB19
:101200002C21884802F0D8F9794802F09BFB36215E
:10121000854802F0D1F9764802F094FB39218348E1
:1012200002F0CAF9724802F08DFB3C21804802F0BE
:10123000C3F96F4802F086FB53217E4802F0BCF9E7
:101240006B4802F07FFB38217B4802F0B5F9684813
:1012500002F078FB3B21794802F0AEF9644802F0D5
:1012600071FB5121764802F0A7F9614802F06AFB50
:101270002821744802F0A0F95D4802F063FB39218F
:10128000714802F099F95A4802F05CFB5C216F4802
:1012900002F092F9564802F055FB57216C4802F0D3
:1012A0008BF9534802F04EFB44216A4802F084F95E
:1012B0004F4802F047FB2821674802F07DF94C486F
:1012C00002F040FB3146654802F076F9484802F0EA
:1012D00039FB92E4E01C03F035FE3DA3D3E9002383
:1012E00002F0F4FF3CA3D3E9002303F019F903F063
:1012F000C5FA5B4C112120805A4802F05DF9208824
:1013000003F0E6FB424903F037FC424903F0E8FCF6
:1013100002F088FF04240B4602460094344802F091
:101320006FFB03213C4802F047F94F4B188847E612
:101330000F214E4802F040F94D4B2D4819680A2202
:101340002B4602F013FB02214A4802F035F92848E7
:1013500002F0F8FA51E40F212B4802F02DF92B4B43
:10136000188803F0B5FB2A4903F006FC294903F06D
:10137000B7FC02F057FF022416E6E01C03F0E2FD82
:1013800013A3D3E9002302F0A1FF13A3D3E90023A1
:1013900003F0C6F803F072FA334D1121288031486A
:1013A00002F00AF92E4B05E7E01C03F0CFFD324CAA
:1013B000031C18BF01230A213048237002F0FCF8F7
:1013C00021780B4802F012FB094802F0BBFA14E442
:1013D0000000000000FEAF400000006066660A40AA
:1013E000DC91FF1F50800000148000003887FF1F31
:1013F0006087FF1F1C8000002887FF1F24800000DB
:10140000E891FF1F3E87FF1F68800000F6B1FF1FB5
:101410003333534000F07F453080000000820000ED
:10142000348200005882000088820000C0820000E0
:10143000FC8200003C83000090830000CC8300000D
:10144000088400005C84000088840000C4840000DC
:10145000248500007C850000C4850000EC8100002C
:101460002687FF1F848000002487FF1F388000002C
:101470003087FF1F488000004087FF1FA0800000CA
:101480001121B54802F098F8B44B188803F020FBFE
:10149000B34903F071FBB34903F022FC02F0C2FE32
:1014A000022438E7E01C03F051FDAF4C0E21207000
:1014B000AE4802F081F82B462178AD480A2202F0AE
:1014C00055FAAB4802F03EFA207800F011FEFFF723
:1014D00094BBA84FA84E3870E01C03F033FD9AA3CC
:1014E000D3E9002302F0F2FE99A3D3E9002303F02D
:1014F00017F803F09BF9B0F5805F306073DA0028CD
:10150000C0F2F2800A219D4802F056F839789848D6
:1015100002F06CFA964802F015FA0721984802F09A
:101520004BF8306803F0D4FA8D4903F025FB8D4960
:1015300003F0D6FB02F076FE042402460B4600942C
:101540008B4802F05DFA03218E4802F035F83168CD
:10155000874802F04BFA864802F0F4F9FFF74DBBDA
:10156000E01C03F0F3FC884C8849031C18BF0123DE
:101570007F482370FEF78CFF21787D48FEF7A8FF97
:10158000FFF73BBB82497A48FEF790FFFFF735BB78
:10159000033480497648FEF77BFF204603F0D6FCF3
:1015A000002840F0A78021467148FEF77FFFFFF733
:1015B00024BBE01C03F0CAFC002800F08F807649B1
:1015C0006B48FEF773FF75496948FEF76FFF744873
:1015D000FEF788FF7248FEF7EDFF72496448FEF798
:1015E00065FFFFF70ABB70496148FEF751FF40F6FF
:1015F000FF73336086E7604C61495D48FEF748FF42
:10160000206803F065FA564903F0B6FA554903F02D
:1016100067FB02F007FE022502460B460095544880
:1016200002F0EEF957495248FEF732FF2168504860
:1016300002F0DCF94E4802F085F9FFF7DEBA4B49BB
:101640004B48FEF725FF484B494819780A222B469C
:1016500002F08CF9464802F075F9FFF7CEBA53490B
:101660004348534E534FFEF721FF53494048FEF77E
:101670001DFF2C4606F50075A7FB0431C9093C483F
:1016800002F0B4F902214D4801F096FF36F8021F2E
:10169000374802F0ABF9364802F054F90A2001F05D
:1016A000D3F8B54204F6FF74E6D1FFF7A6BA334982
:1016B0002F48FEF7EDFE2F4B2D481978FEF708FF57
:1016C000FFF79BBA3E492A48FEF7F0FEFFF7F6F80F
:1016D00034492748FEF7EAFEFFF78FBA3949244814
:1016E000FEF7E4FEFFF789BA2F492148FEF7D0FE46
:1016F000356007E7344800F05BFA54E733491C488B
:10170000334EFEF7D3FE33491948FEF7CFFE2C4681
:1017100000230A222146164802F028F90221274810
:1017200001F04AFF36F81410114802F05FF9104832
:1017300002F008F910340A2001F086F8B4F5805F51
:10174000E6D1FFF75ABA00BF0000000000FEAF402C
:101750000000006066660A40848000002687FF1F44
:101760003333534000F07F453C87FF1FB0800000BB
:101770006087FF1F4087FF1FF091FF1FA0800000C0
:10178000DC80000030800000F4B1FF1FE880000022
:1017900050810000F88000000081000008810000F6
:1017A00050B2FF1F20810000C48000008081000033
:1017B0004EB2FF1F81808080A0810000B0810000B8
:1017C000448100002881000000B2FF1FB4810000A6
:1017D000F491FF1FC88100002DE9F0419C4C237853
:1017E000002B40F0948003F0FF079A4A1378002BF7
:1017F00073D0994D2B78D9076FD59848DFF8D8C2A8
:101800000368DCF800105B1A0E2B66D9DFF8CC8277
:1018100098F80030002B60D0DFF880E29EF80030AE
:10182000002B00F0AD808E4C8E4E01F09BFE002808
:1018300010DD257801F05AFE237870554F2B03F107
:10184000010253D8F15C0A295AD0227001F08AFEB5
:101850000028EEDC844B1B78002B39D0002F40F0A1
:10186000AB80824D824C8348022101F0A5FE218885
:10187000814802F0BBF80421804801F09DFE2988D0
:101880007D4802F0B3F805217D4801F095FE2288DD
:101890007C4B794833F8121002F0A8F804217A48FA
:1018A00001F08AFE794B7448196802F09FF8042110
:1018B000774801F081FE774A774B11681B686E48C4
:1018C000C91A0A22002302F051F86B4802F03AF8D4
:1018D000002388F80030BDE8F081704B1A781AB107
:1018E00000221A70BDE8F081BDE8F08118216C4833
:1018F00001F062FE604802F025F80023237094E7AF
:1019000000255848F554FFF793F825708DE700251A
:10191000257000F077FF634B5F4A1B7810600BB3B4
:10192000614B1B6813F480324CD0604B504F1B88C6
:101930003A889A4201D03B8001255D4A12889A423A
:1019400048D95C4B514E1B8833605B4B5B4A1B682C
:10195000591E914270D9012731682770282000F064
:101960003DFE08E0494B1968282000F037FE20238F
:10197000013BFDD1002700F045FF464B186034E7DE
:10198000046840F2EE26137843B12B78DB0705D5C7
:101990000368DCF800105B1A0E2B06D80368117878
:1019A0001B1B31B1B3F5FA6FEDD901238EF800306E
:1019B00039E7B342E7D9F8E7172000F0D7FB2B4D02
:1019C00028804FE73E4B2A4F1B8839889942B2D175
:1019D0001546B2E73B4A12889A4219D3294A2B4E40
:1019E00032F813003060C5B1374A324B12881B8879
:1019F0009A42114628BF1946814201DD3160B3E7A2
:101A00009A4238BF1A4682421146A8BF0146F5E7FE
:101A10002D4B1E4E1B88336097E7172000F0A6FB66
:101A2000124DB7F9001002462A80284812B200F081
:101A30007DF93368181AD7E703EB43031A01013A1B
:101A4000232A88D92249234801F0E8FE83E700BF12
:101A50003687FF1F8CB5FF1FA4B5FF1FA8B4FF1F5B
:101A6000F8B1FF1F50B4FF1FF4B1FF1F38B2FF1FC2
:101A7000E491FF1F0C8600006087FF1F10860000A6
:101A800018860000F491FF1F20860000F091FF1FD0
:101A900028860000E091FF1FEC91FF1F44B2FF1F5A
:101AA000F08500004087FF1F50F00F403487FF1F74
:101AB0002687FF1F3E87FF1F2C87FF1F57555505A1
:101AC000DC91FF1F2487FF1FF6B1FF1F00B2FF1F2D
:101AD0006D0400003CB2FF1F10B6FF1F3D87FF1FC3
:101AE0002DE9F04184B000F0DDFB1A4C1A4BDFF811
:101AF00088801A4D002780262246414618461F60DE
:101B00001E7102F025FA164B4146224618461F6008
:101B10001E7102F01DFA134A134B1448144917683A
:101B20001E680068D1F8008001220C230292019304
:101B300002F0CAFF3A46009031464346284600F07C
:101B4000D7F80C492246284604B0BDE8F04102F01F
:101B5000FFB900BF2087FF1F3CB2FF1F00B2FF1F6D
:101B600048B2FF1F2887FF1F3887FF1F3087FF1FDE
:101B7000E891FF1FAD1B00008504000000F092BB40
:101B800070B50C4606464FF08741204602F0F4FF40
:101B900003F0B8F900210546204603F081F918B991
:101BA00015B9012386F82030284670BD704700BF64
:101BB00000230022C0E90A230023438483840363B3
:101BC00080F82030704700BFF8B50D46044627491D
:101BD000284617461E4603F08BF948B900212846CF
:101BE00003F068F920B929462046FFF7C9FF03E052
:101BF000012384F82030002020600699384603F045
:101C00006FF81A49054603F073F948B900212846D0
:101C100003F050F920B929462046FFF7B1FF03E051
:101C2000012384F82030002060603146069802F0DD
:101C3000A3FF0E49054603F05BF978B90021284659
:101C400003F038F950B929462046FFF799FF94F878
:101C500020300246A26083F00100F8BD002001237D
:101C6000024684F82030A260F8BD00BF00007F4328
:101C70004B1E0F2B16D8102930B431D0C1F11004EF
:101C80004FF6FF73E3401C0E1B024461036192B9DF
:101C900000220023C0E9062390F8200030BC80F029
:101CA000010070470023012280F8202083604360F8
:101CB000036018467047C1F111014FF6FF7400230D
:101CC00024FA01F2DB43D243190290F8203041EAB2
:101CD00012611202C161826130BC83F00100704761
:101CE000024C0025C0E90445D1E700BF00FF7F009A
:101CF000F0B583B0002500260027C0E90A674584B7
:101D0000089E8584056380F820509DF82850009631
:101D10000446FFF759FF2A4609992046FFF7A8FF16
:101D200094F8200080F0010003B0F0BD2DE9F04FE1
:101D300004688A1A0CB3436802FB04F4E5170BB37A
:101D4000D0E90AABA2FB03674FEAE27903FB09770C
:101D500016EB0A066FF0004847EB0B074FF000093F
:101D6000B04579EB070344DA8368C0E90A8946463F
:101D70004F4663B9002200231AE04368002400257F
:101D8000002BDDD1002600278368002BF2D0D0F88D
:101D900030C0B0F922E00263CEEB010ECCEB0202C0
:101DA000CEEB020202F30F0203FB02F24184D317CF
:101DB000D0E90489A4197D41A4185D41A04579EBBF
:101DC000050309DBD0E90623944275EB0301A04625
:101DD000A946BCBF904699464FEA182008F08002F9
:101DE000002340EA0960134318BF013000B2BDE888
:101DF000F08FB6F1004F77F1FF3309DA4FF0004E64
:101E00004FF0FF337646C0F828E01F46C362BBE7B9
:101E1000C0E90A67B8E700BF374A384913681B06AC
:101E2000FCD40B6813F08003F8D172B634490A78F9
:101E3000002A5FD0334A3448F0B4344C176806683F
:101E40002568D4680C303E44143200681268304F64
:101E500035442C4420440244C2F34E022D4E2E48F9
:101E60002E4D2F4C42F400423A60376806682D68C8
:101E70002C4A24680C303E44006812682A4F3544CE
:101E80002C4420440244C2F34E02284E2848294DD7
:101E9000294C42F400423A60376806682D68274AA8
:101EA00024680C303E4400681268254F35442C44A9
:101EB00020440244C2F34E02224E2348234D244CB8
:101EC00042F400423A60376806682D68214A246867
:101ED0000C303E440068126835442C4420440244CF
:101EE000C2F34E021C4842F4004202600B7062B61C
:101EF000F0BC704762B6704724B0034024B00B407A
:101F0000A1B4FF1F38B003403CB0034040B00340D1
:101F10002CB0034058B003405CB0034060B00340B5
:101F200064B003406CB0034030B0034038B00B40A5
:101F30003CB00B4040B00B4044B00B404CB00B40A9
:101F40002CB00B4058B00B405CB00B4060B00B4065
:101F500064B00B406CB00B4030B00B4030B429483B
:101F6000294A2A4B2A4D6024E121047011701B7804
:101F7000284C082B30D00A2B2748284937D00C2B67
:101F80000CBF35223D2212232A60236002600B60C1
:101F9000234B24491B78244ABBB101230B601360F7
:101FA000224B23491B78234A012B26D9042B0FD916
:101FB000082B1ED9102B94BF862387230B60136038
:101FC0001D4B01221A7030BC70470B601360E7E7AD
:101FD00084230B601360F3E700F58E200F4908306F
:101FE000012213232A60236002600B60D0E73922AC
:101FF000F7E785230B601360E2E780230B60136033
:10200000DEE700BF00400740014007404187FF1F57
:1020100008B003400CB0034008B00B400CB00B40BC
:10202000A4B4FF1F20B0034020B00B404287FF1F25
:1020300024B0034024B00B40A1B4FF1F68B10E4A86
:102040001378C3B90D4909780120107019B10C49F2
:102050000C4A0B601360FFF781BF074B1A7852B12F
:10206000064A18701378002BF5D0054A054B10600E
:102070001860FFF773BF7047A4B4FF1FA1B4FF1F20
:1020800024B0034024B00B400C2830B417D91023DF
:10209000984228BF18461C46104A114D1178181A4C
:1020A0008C42287018D00F4913700B7823B10E4959
:1020B0000E4A00230B60136030BCFFF74FBF0A28A5
:1020C00002D90C231C46E7E7082802D90A231C463C
:1020D000E2E708231C46DFE730BC70474187FF1F5B
:1020E000A0B4FF1FA1B4FF1F24B0034024B00B40D5
:1020F00010B51A4B1B780446BBB9012C19D9042C16
:10210000174B18490AD9082C20D9102C17D90722A7
:102110001A600A60144A2023137010BD04221A604A
:1021200013460A60104A137010BDFFF775FE012CAC
:10213000E5D80B4A002313600B4A137010BD06222A
:102140001A600A60084A1023137010BD05221A6035
:102150000A60054A0823137010BD00BFA1B4FF1F19
:1021600024B0034024B00B404287FF1F28282FD8FB
:10217000334B2DE9F0411E5CFF2E2BD0314B1B78E9
:10218000002B2AD132062CD472B62F4D2F4C2F465D
:10219000012326602B7062B672B623681B060CD42E
:1021A0003B781BB9F4E72B78002BF1D062B601F035
:1021B0001BFD72B623681806F5D5254B1B68002257
:1021C0002A7062B6234A107843FA00F0BDE8F08125
:1021D000002070470020BDE8F081FFF71DFE3206A9
:1021E000D2D572B61C4DDFF87C801C4C06F040073F
:1021F000FFB206F03F06D8F80030DFB123F010033D
:10220000C8F8003001232660134A2B7062B672B6FC
:10221000236819060CD413781BB9ECE72B78002B34
:10222000E9D062B601F0E0FC72B623681B06F5D572
:102230000B4BC3E743F01003C8F80030E2E700BFE0
:1022400030860000A1B4FF1FA3B4FF1F00B00340FD
:1022500010B00340A0B4FF1FA2B4FF1F00B00B409A
:1022600010B00B400CB00B400A4A0B49136843F402
:10227000805313600B7843B9084BC0221A70084B87
:1022800080F30C0000B218807047044B80221A7053
:10229000F5E700BF2C800440A4B4FF1F21C00C4010
:1022A00000C00C40F0B585B010221949684601F015
:1022B00011FD184A127891071DD51749174D0A7854
:1022C00012F0700218BF0A701549164A034680279B
:1022D00015480F700026332403212E7004701170EE
:1022E00072B60D4C43F001032046984762B623783E
:1022F00013F0700309D10D4B064901E0013B02D0F8
:102300000A78D207FAD505B0F0BD237005B0F0BD4C
:102310005C86000001000240000002400400024010
:10232000070002400A0002400B000240410D03007A
:10233000B0F5006F0AD210B5094B1B78DB070446D5
:1023400006D504F1A0500078C0B210BD002070473F
:10235000FFF7A8FF04F1A0500078C0B210BD00BF85
:1023600001000240B1F5006F6CD2F0B53D4B1B7817
:10237000DB0785B00C4666D5B2F5006F03D28B182B
:10238000B3F5006F6AD3C1F50062374E354B14F0D8
:10239000030118D0022939D004F1A0550778297813
:1023A0008F4200F1010008D0317811F0700118BFA0
:1023B00031702F701978C907FCD5013A0134002A11
:1023C000E5D105B0F0BD032A20D9057890F801C009
:1023D000817890F803E004F1A05745EA0C2545EA1E
:1023E00001413D6841EA0E61A94200F1040008D0B4
:1023F000357815F0700518BF357039601978CF073A
:10240000FCD5043A0434002AC1D1DAE7012AC3D04A
:1024100004F1A05790F801E001783D8841EA0E21CF
:102420008D4200F1020008D0357815F0700518BF14
:10243000357039801978CD07FCD5023A0234002A6C
:10244000A5D1BEE77047039202910190FFF72AFFE2
:1024500001A807C8B2F5006F91D394E7002A94D180
:10246000AFE700BF010002400000024008B5104C79
:1024700008E0236859050DD423681A050FD4236892
:10248000DB0411D423685803F3D500F055FB23680F
:102490005905F1D500F00EF823681A05EFD500F0C4
:1024A00009F82368DB04EDD500F004F8EAE700BF83
:1024B0003480044008B5FFF7D9FF00BF014B10225C
:1024C0001A80704700200540704700BF094908B5D1
:1024D0000B6830B16A461844A2F58052904202D28D
:1024E0000860184608BD02F03BFD0C2303604FF066
:1024F000FF3008BD4487FF1F10B40F4B53F8302046
:1025000092F880422CB1012369B182F8803010BC6E
:10251000704703EBC0035B681A6841B922F00202FE
:102520001A6010BC704782F8003110BC704742F04E
:1025300003021A6010BC70476C8600001C4A02EB54
:10254000C00301295B6811D004291BD052F8300068
:10255000002280F8802229B1022920D0032922D02C
:102560001A6070474FF480721A60704752F830005A
:102570004FF4A27280F880121A601A6822F02002CA
:102580001A60704752F830104FF4A272012081F89F
:1025900080021A601A6842F020021A60704740F206
:1025A00003121A6070474FF481721A60704700BFBF
:1025B0006C86000030B4054B054D064C00221021FE
:1025C0001A602A602060196030BC704714D0034044
:1025D00004D0034000D00340704700BF282838B51E
:1025E0002ED0002904464FDD5F4B1B78012505FAEC
:1025F00003F28A4202D8212837D938BD0338C2B243
:10260000012A3AD9202C4AD0192C48D0574A1268AE
:1026100002FB011222FA03F31D2800F29B80DFE87F
:1026200000F0928B847D9999766F999999999999EF
:1026300099999968615A53994C9999999999994599
:10264000494B1B780B2B08D90C2B1CBF0C3B194199
:102650000846BDE83840FFF707BEC3F10C039940B8
:102660000846BDE83840FFF7FFBD2946FFF744FFA5
:102670002946BDE83840FFF761BF3D4A126802FBBA
:10268000011222FA03F3C7E72128B6D80021FFF789
:1026900033FF20460121BDE83840FFF74FBF354AE0
:1026A000126802FB011222FA03F3B5E73249334AFA
:1026B0000B604FF45173136038BD3149314A0B60E0
:1026C0004FF45173136038BD2F49304A0B6040F20C
:1026D0004443136038BD2E492E4A0B6040F24443F8
:1026E000136038BD2C492D4A0B6040F244431360FF
:1026F00038BD2B492B4A0B6040F24443136038BD70
:1027000029492A4A0B6040F24443136038BD2849E6
:10271000284A0B6040F24443136038BD2649274ADB
:102720000B6040F24443136038BD2549254A0B60D5
:1027300040F24443136038BD2349244A0B604FF4F0
:102740005173136038BD2249224A0B604FF4517314
:10275000136038BD212C3FF650AF7F29D4BF002134
:102760000121204693E700BF4887FF1F08800340F0
:102770000890034008800B4010800B4048A00440A4
:1027800018800B404CA004401880034008B004405F
:102790001080034004B004404080034018C004404F
:1027A0003880034014C004402880034010B0044027
:1027B000208003400CB004403080034010C004402F
:1027C000488003401CC004401890034034900440EB
:1027D000109003403090044038B1102828BF1020DA
:1027E000044AC3B2107813707047024A012310786C
:1027F000137070474887FF1F212801D8FFF79EBE3E
:10280000704700BF72B60C490C4B0D4A1B68086834
:10281000126862B6520102D5322B88BF01300949D5
:10282000C3F5BB334FF47A72FF33A1FB031302FBF2
:1028300000F000EB93107047A8B4FF1F18E000E011
:1028400004ED00E0ABAAAAAA2DE9F843054672B64A
:10285000204F214B214A1B683C68126862B6520126
:1028600002D5322B88BF013495B3C3F5BB331C4E60
:10287000DFF86490DFF86480FF334FF47A72A6FBD0
:10288000031302FB04F404EB931472B6D9F800109E
:102890003A68D8F800E062B6C1F5BB33FF33A6FB57
:1028A00003031EF0806FC4EB93134FF47A7002D0D1
:1028B000322988BF013200FB0233B3F57A7F04D39B
:1028C000013D05D004F57A74DFE701F08DF9DCE70E
:1028D000BDE8F883A8B4FF1F18E000E004ED00E0B5
:1028E000ABAAAAAAF8B52E4B2E49DFF8D4E0DFF840
:1028F000D4C02D4E2D4D2E4C2E4A2F4F4FF400009C
:1029000018604FF0807018604FF0007018604FF042
:10291000806018604FF00060186000200860282375
:102920004BF6FF71CCF80010CEF800303360136026
:102930002B6023603B60B3629362092245F8242C2C
:10294000C4F8D80F05F57F65C7F8D41F07F5FF2732
:1029500007F5FA67C6F8F83F2B6006F5FF26C4F8BE
:10296000D42F05F5FD2504F5FF24386006F2F47632
:102970001248316005F5FF6504F5FD642B602360A6
:102980000260FFF7EBFAFFF727FE1420FFF75CFF6A
:1029900000F00CFD4FF48C70BDE8F840FFF754BF19
:1029A00008E100E0048003401480034024800340D9
:1029B0002C8003401C8003403480034000800B4087
:1029C0000C80034008800340431E032B14D872B6CA
:1029D0000A4951F8230068B170B4094C058834F8ED
:1029E0001320466841F82360521B24F8132062B676
:1029F00070BC704762B670470020704704B5FF1F77
:102A000000B6FF1F013803280BD872B6074B53F8E6
:102A1000203043B100205B680130002BFBD162B64F
:102A20007047002070471846F9E700BF58B5FF1FF0
:102A3000F0B472B61A491B4E012311F8014B194F1D
:102A40009A00240742F0010505D556F8324064B1DA
:102A500056F83520BAB10133052BEED162B6124BD0
:102A600000221A70F0BC00F01BBD0F4C0F4D2178F6
:102A700007EB4313083001395860217047F8325092
:102A800062B6F0BC7047084A0949137807EBC504E1
:102A90000830013B6060137047F8351062B6F0E70C
:102AA000B48700000080FF1F81B5FF1F8800400031
:102AB000C8004000431E032B1DD81B4A400140F0B4
:102AC000100030B4104472B6184CE25C032A1BD8D4
:102AD000DFE802F00212151703220D88E25410F00D
:102AE000080F14BFC823882343EA05430831416017
:102AF000036062B630BC704708300222EDE7052261
:102B0000EBE708300422E8E7094A52F8230038B11D
:102B1000084A52F82300416042F8231062B6E9E700
:102B200042F82310034AF7E70080FF1F90B5FF1F0C
:102B300058B5FF1F68B5FF1F2DE9F04FDFF814B33C
:102B4000DFF814A387B044E0AD4F4FEA930807EBDA
:102B5000C809013ED9F8042003F00803F6B2A2F137
:102B6000080003F0FF04002B40F0038157F83830D1
:102B70001B0C99B222F8081C002B00F0F180A14B2D
:102B800022F8064C42F8044C53F82620002A00F0A4
:102B90006C819D4D55F8263058609C4C45F82600B8
:102BA00034F81630194424F8161000F059FC0028A7
:102BB00000F05481964A974B19F0080F00F1080075
:102BC00018BF1346C9F8040047F8383008238BF8BB
:102BD00000309BF80040E4B260071BD58E4B1B7899
:102BE000ABB18E490A7802F0FF032AB1013BDBB298
:102BF0000B70002B00F0B58389490A7802F0FF03BF
:102C00002AB1013BDBB20B70002B00F0F6800423ED
:102C10008BF8003004F0080303F0FF02002B00F0F3
:102C2000D5809AF80030DBB21E098DD19C08744F14
:102C300057F8342007EBC401C2F38302013A496814
:102C40000C2A7ED8DFE802F081817D7D7D7D7D7D4F
:102C5000427D7D7D07000868724B734D01936C4B7C
:102C60004A68724E47F8343081B240F281646D4B4D
:102C70006A60286000220120A1423A611A60BA61AC
:102C8000307000F2F680B1F5D06F80F0E882B1F5D7
:102C9000817F00F0D38200F2D881802900F04D813D
:102CA000822940F09282A988614B01F07F010429BA
:102CB00000F28C825F4C89000B44227062701A789B
:102CC000930740F13883207002203AE1554B01937D
:102CD0001A6862B3584B5949544E18880C7896F8C4
:102CE00000E04028054684F0010C28BF402544F050
:102CF0000204BEF1000F81F800C0A0EB050007EB55
:102D0000C40C0CBF8821C82180B28EF0010E41EAAC
:102D10000541CCF80420188086F800E02A4447F8E2
:102D2000341010B9402D18BF0022019B1A603E4B91
:102D30001A88B2F5A06F04D100219A785970404BDF
:102D40001A70404A0123137040E7374A158842F24F
:102D50002100854200F052812D4A47F83420F0E7E7
:102D60002B4A2C4B19F0080F18BF134647F8383080
:102D70002CE700F095FB344A344952F82630002BFA
:102D800000F02D8158688C5D42F8260003F108029E
:102D9000C9F80420032C05D8DFE804F0120F15024F
:102DA00004228A551A8819F0080F0CBF8823C823FB
:102DB00043EA024347F8383008E702228A55F1E730
:102DC00003228A55EEE705228A55EBE7E00700F17A
:102DD0007881210600F1A281A20706D51C4A1D496F
:102DE00013780220DBB213700870E30602D5194B8A
:102DF00010221A7007B0BDE8F08F00F0BDFC06E7A6
:102E00000080FF1F04B5FF1FB0B4FF1F00B6FF1FF7
:102E1000C8004000880040008CB5FF1F15B5FF1F9B
:102E200094B5FF1FACB4FF1F78B5FF1F14B5FF1F8B
:102E3000C020074084B5FF1FC0B4FF1F80B5FF1F2F
:102E4000982007409420074058B5FF1F90B5FF1FFA
:102E5000882007408020074090200740B74A47F865
:102E60003800137801331370B0E643F82600B44DF0
:102E700093E642F22104A14200F0AD8000F20E81FF
:102E8000B1F5086F00F05481B1F5106F40F09D81ED
:102E9000AC4AA9781170AC4D042402E00134142C22
:102EA0000CD057F834301906F8D505EBC4030134BB
:102EB0005868083800F0F4FA142CF2D1A349A44B56
:102EC000A44A0291A449A54C9D4D039405964FF048
:102ED000000988461C4616460495206828B14568B6
:102EE00000F0DEFA2846002DF9D100232360049B70
:102EF00030681A46002342F8293028B1456800F0AE
:102F0000CFFA2846002DF9D100223260029A98F8B3
:102F100000301146002241F8042B039A0291023B33
:102F20004FF0000122F81910032B00F2B481DFE802
:102F300013F0E201AE01E201AE01894C02202270E1
:102F40006270EA88824280F00D8286490D78402ABC
:102F500045F0020E944607EBCE0028BF4FF0400C20
:102F600004EB0C0344600293CCEB02004FEA0C48E4
:102F70004FF001090022C82444EA080385F0010447
:102F800047F83E3032700C70DFF8BCE1764BDFF86A
:102F9000D481002840F02081BCF1400F1BD144F0C7
:102FA000020407EBC403029FDFF89CE15F60002A84
:102FB00040F02781020442F0880286F800900D70EC
:102FC00007444EF834203B46402804D10020674A8D
:102FD000019910800B60664A01231370B1E68B5D86
:102FE000032B00F2248101A252F823F0CD2B000024
:102FF000CD2B00001131000017310000928862B91A
:103000005C4ACD1D11F8013B02F8013F8D42F9D118
:10301000594A1268862A00F0C9805249524E0878EF
:10302000327840F0020580F00100087007EBC5011E
:10303000002A4FF00000486082F001020CBF882196
:10304000C82147F83510327086E640F202329142CC
:1030500040F0B080A98801F07F01042900F2B5801A
:103060006A88002A40F0B180444C89000C448146B3
:10307000217841F0020121700020029080468446B0
:10308000044638490D7845F0020E07EBCE03B9F13E
:10309000000F5C600CBF8824C8246DE742F2212435
:1030A000A14240F08E80A988002940F04281344B33
:1030B000344A354C1B68AD78136081460A4625704A
:1030C000DAE72B49204B3148264EDFF8B0C0304DAF
:1030D000DFF8D4E02F4F02240C702F4C18605C6096
:1030E00098602E48D8601A619A610D2332702C4C7A
:1030F0008CF800302B4EFF232B7001209F258EF87B
:1031000000303A7033702570087007B0BDE8F08F5A
:1031100000238B555AE501238B5557E51749224B60
:1031200080220D2008701A70A2077FF55EAE55E66A
:10313000044A0B4C1278227003E700BF81B5FF1FD1
:10314000B0B4FF1F8CB5FF1F0080FF1F68B5FF1FC5
:1031500004B5FF1F58B5FF1F90B5FF1F00B6FF1F36
:1031600084B5FF1F80B5FF1F14B5FF1FC0B4FF1F3C
:103170009420074007B6FF1F08B6FF1FC020074076
:10318000A8B4FF1F10B6FF1FA4B5FF1F88004000A2
:103190008820074098200740C4B4FF1F18B5FF1FC0
:1031A000842007408C20074080200740754A0F216B
:1031B000117032E7B1F5A06F07D100224FF001097D
:1031C0005AE742F221329142F7D06F4B0F221A7028
:1031D0006E4A01231370B4E540287FF6E0AE44F058
:1031E00002040EEBC401029E4E60AAB183F8009067
:1031F000674A88F800503346403840334EF8342050
:10320000E5E6029B86F80090020442F0C8020D70C9
:1032100003444EF83420D7E683F80090029B5D4AC1
:1032200088F80050403840334EF83420CFE619F08B
:10323000080F0CBF022303238B55C7E4A98801F0B4
:103240007F010429C1D86A88002ABED14E4C89006A
:103250000C448146217821F0020121700CE74E4A8E
:103260005468002CB1D06888B5F804E003E00C3253
:103270005468002CA9D013888342F8D15388734531
:10328000F5D1000A03280CBF2078108959E64FF0C9
:10329000010388F8003009F10109B9F1040F04F1C4
:1032A000040406F1040608F101087FF416AE3B4B56
:1032B000059E3B4DDFF8F080002018704FF00109AB
:1032C00018F8013B05F8043B1A0719D44FEA8904A2
:1032D00044F0020244F00304002347F8323047F878
:1032E0003430304B9D4209F10109E9D196F8009044
:1032F00089F00102C0E64FF0000388F80030CAE709
:1033000000F0AEF818B307EB49134FEA8904083010
:103310005860204B47F8343000F0A2F868B144F010
:10332000010307EBC30208305060194A47F8332005
:10333000CEE78146A0E6022003E6184B44F00102E6
:103340001B7847F83200154A01331370C0E7134B5E
:10335000124A1B784FEA8904013347F8340013708E
:10336000DAE700BE4028844628BF4FF0400C04EB4B
:103370000C03CCEB00004FEA0C48029300224FF004
:1033800001097EE615B5FF1FC020074094200740C5
:10339000C800400088004000B887000081B5FF1FCA
:1033A000C4200740D4200740B48700002DE9F04135
:1033B00000F08AFD00231F491A4601EBC30041F8C3
:1033C00033200133142B42604FF000041948F4D12C
:1033D000194A1A4F13681A491A4D1B4EDFF874C068
:1033E000DFF874E0DFF8748043F480231360C0F3E7
:1033F00007233B70C0F307430B70000EFF2302F559
:1034000028322870D4328CF80030104D8EF80030FD
:103410000F483370012388F80030702681F850403F
:103420004FF40074102107F8183C2E7004601170DE
:10343000BDE8F0810080FF1F348004409C200740DD
:10344000B0200740B42007401020074049E400E0C6
:1034500008E100E0802007408820074094200740D2
:1034600072B60D480268B2FA82F30B2B10DC4FF0F3
:103470000041D94022EA0102026062B6074803EB2C
:10348000C303DB00C2180021C150104651607047D1
:1034900062B60020704700BF4C87FF1FBC83FF1F30
:1034A0000D4B0E4AC31AA2FB03231B090B2B0CD88E
:1034B0000B4A127852B972B60A484FF000410268BE
:1034C00021FA03F31A43026062B67047064A127883
:1034D000002AF0D0FFF7ACBABC83FF1F398EE33867
:1034E00081B5FF1F4C87FF1F8CB5FF1F38B50F4DEF
:1034F000286878B143880288C118013393420C7A56
:1035000002D24380204638BDFFF7CAFF0023204681
:103510002B6038BD064B1B782BB10320FFF754FA04
:1035200028600028E6D14FF0FF3038BDA0B5FF1F5E
:103530008CB5FF1F10B5094C206818B1438818449A
:10354000007A10BD064B1B782BB10320FFF73CFA25
:1035500020600028F2D14FF0FF3010BDA0B5FF1F52
:103560008CB5FF1F044B054A1B6890881BB11A8855
:103570005B88D31A18447047A0B5FF1F00B6FF1F21
:103580000B4B1B789BB110B50A4C206848B1FFF774
:1035900087FF002303202360FFF716FA30B1FFF7FF
:1035A0007FFF0320FFF710FA0028F8D110BD704705
:1035B0008CB5FF1FA0B5FF1F2DE9F04FDFF8F89085
:1035C00083B0012289F80020019169B3DFF8EC8013
:1035D000364F019E8346D8F80000B0B3344D44887E
:1035E000C4F14001B14228BF314604EB010E002274
:1035F0001FFA8EFE2A70761AA0F802E000F1080287
:1036000051B1013C224459441BF8014B02F8014FCF
:103610008B45F9D1B0F802E0BEF13F0F0BD8254A37
:1036200005211170002ED6D10198002389F80030B1
:1036300003B0BDE8F08F4022028001460420FFF76E
:1036400039FA0022C8F80020E9E73A782AB3184D81
:103650004AF2F9244FF0010A07E0013C16D02A781B
:10366000A2B900F0C1FA3A78BAB10420FFF7CAF95A
:103670000728F2D889F800A0FFF7F2FEC8F800008A
:103680000028ACD10C4B013C1870E8D101234FF05D
:10369000FF302B7003B0BDE8F08F00234FF0FF30F8
:1036A00089F8003003B0BDE8F08F00BF8CB5FF1F74
:1036B0009CB5FF1F94B5FF1F95B5FF1F98B5FF1F61
:1036C00000B583B002AB012103F8010D1846FFF7E6
:1036D00073FF03B05DF804FB38B50E4D0E4C28683F
:1036E0000123237028B1408800232370C0F14000DB
:1036F00038BD0A4B1B7813B90020207038BD042058
:10370000FFF780F90728F7D8FFF7AAFE28600028FE
:10371000E9D1F1E798B5FF1F95B5FF1F8CB5FF1FE5
:10372000F8B5114B1B788BB1104E114D3468012741
:103730002F7064B10F4A63880027177021462380D9
:103740000420FFF7B7F9376000232B70F8BDFFF7AF
:1037500087FE084B28B1014604201C70FFF7AAF928
:10376000F2E71F70F0E700BF8CB5FF1F98B5FF1F91
:1037700095B5FF1F94B5FF1F38B50E4B1B7873B975
:103780000D4C216861B103F0FF054B880B800420CC
:10379000FFF790F9256038BD084B01221A7038BD3B
:1037A000FFF75EFE0028F7D00146BDE83840042050
:1037B000FFF780B995B5FF1F98B5FF1F94B5FF1FA0
:1037C00070B5EFF3108272B60C4C206880B10C4ECD
:1037D00000254369236073B19D6102B962B64577E4
:1037E00083689847EFF3108272B620680028F0D102
:1037F00002B962B670BD3360EFE700BFA8B5FF1F26
:10380000ACB5FF1FFFF7DCBF024A1368013313603A
:10381000704700BFA8B4FF1F704700BF0368F0B433
:10382000FBB1002501249D60DC601B4C1A601C4428
:10383000241104F144056A11032692009E60174F7B
:103840000679174B47F8241002F1604202F56142F5
:1038500005F01F05012000FA05F5E6541560F0BCDF
:103860007047104C236843F40003236000BF0E4BE5
:103870000E4DA4F58734A4F59E7401261E602346E0
:1038800004609C68002CD0D01033AB420360F8D1A8
:10389000002303601846E2E7008FFCBF5087FF1F3C
:1038A00044E400E03C800440007003404071034069
:1038B0000168A9B10B4BF0B40B441B110A4E0B4F1E
:1038C0000B4D46F8237003F1440202F01F0401235C
:1038D0005211A340002445F822308C600460F0BCF3
:1038E000704700BF008FFCBF5087FF1F19380000D2
:1038F00080E100E0024A034B012111601B68184778
:103900000C7103405087FF1F024A034B01211160D5
:103910005B6818471C7103405087FF1F024A034B26
:10392000012111609B6818472C7103405087FF1FCD
:10393000024A034B01211160DB6818473C710340C8
:103940005087FF1F30B5044683B002252A4601A8E0
:10395000054900F0BFF923682A4601A95B682046A3
:10396000984703B030BD00BF7C870000F0B5074624
:103970008BB0002A33D0012A08BF0A2251B3212478
:1039800000E0F4B2B1FBF2F502FB1511C8B209294F
:1039900000F1300198BFC8B20AA988BF373021446E
:1039A00088BFC0B201F8240C661E2946002DE8D15C
:1039B00033B1013CE4B20AAB23442D2203F8242C9A
:1039C0003B6801AA11195B683846C4F12202984786
:1039D0000BB0F0BD30228DF825202124E8E70368E4
:1039E000C9B21B6898470BB0F0BD00BF0029BABF31
:1039F00049422D2300230A22FFF7B8BFFFFFFFFF34
:103A00002DE9F04385B080461946104616461F46FC
:103A10009DF8305000F0F4FE002840F0B18027F00F
:103A20000044304621464FF0FF32594B00F0E8FE8B
:103A300098B9304621464FF0FF32554B00F0C2FE98
:103A400058B9D8F8003053495B684046032298477C
:103A50008146484605B0BDE8F083304639464FF010
:103A600060424D4B00F0C2FE002870D1304639460E
:103A70004FF06042494B00F09BFE002867D1304672
:103A800039460022002300F093FE002863D18146CE
:103A9000002D65D0424B00240022104619463AA35F
:103AA000D3E9002300F012FC01340B46E1B28D4251
:103AB0000246F2D83046394600F056FA0F4606461E
:103AC00000F0DCFE044600F08BFB02460B4630465D
:103AD000394600F047FA4B4606460F460A22214671
:103AE0004046FFF743FF0F2D28BF0F2501352E233A
:103AF0008146EDB28DF8003001240022294B30467A
:103B0000394600F0E3FB0F46064600F0B7FE04AB73
:103B10002344C0B200F1300203F8102C00F070FB17
:103B200002460B463046394600F01CFA0134E4B236
:103B3000AC4206460F46E0D1D8F8003022465B681A
:103B4000404669469847484605B0BDE8F083D8F836
:103B50000030154978E707F100474FF0010997E772
:103B600000220F4B3046394600F0FEF900F086FE89
:103B70004B4601460A224046FFF7F8FE814668E7B9
:103B8000D8F8003009495FE7000000A09999B93FD3
:103B9000FFFFEF7F88870000FFFFEF41FFFFEFC1CE
:103BA0000000E03F00002440848700008087000080
:103BB00008B5FCF799FEFDF70FFE00F015F8FAE7DF
:103BC000FFF7DEBCFFF7B6BCFFF790BCFFF7CABC3F
:103BD000FFF7A6BDFFF780BD08461146FFF7ECBC16
:103BE0000846FFF76DBD00BF2DE9F843314E33782D
:103BF00093B1314F3A787AB90122D9073A7036D465
:103C00009A0719D400225B073A7005D52B4B1A6826
:103C100012B1EFF305820AB1BDE8F883EFF310812A
:103C200072B6186818B1264C2278002A2ED00029C6
:103C3000F2D162B6BDE8F883DFF8908098F80020F2
:103C4000002ADFD0DFF88890002405E0013498F8DE
:103C50000030E4B2A34212D959F824502B68284608
:103C60001B6998470028F1D02B699847EEE7FFF7CA
:103C700079FCC8B9134B1B781BB93378C0E733788C
:103C8000C0E7337803F0FE033370B9E745691D6080
:103C9000012323705DB1AA6101B962B600254577A1
:103CA000836898472570B7E700F050F9E2E7064BC4
:103CB0001D60F1E77087FF1FB9B5FF1FB4B5FF1F87
:103CC000B8B5FF1F1688FF1FB0B5FF1FC8B5FF1F8F
:103CD000BCB5FF1F01B441EA000313F003036FD129
:103CE000403A41D351F8043B40F8043B51F8043BBF
:103CF00040F8043B51F8043B40F8043B51F8043BC6
:103D000040F8043B51F8043B40F8043B51F8043BB5
:103D100040F8043B51F8043B40F8043B51F8043BA5
:103D200040F8043B51F8043B40F8043B51F8043B95
:103D300040F8043B51F8043B40F8043B51F8043B85
:103D400040F8043B51F8043B40F8043B51F8043B75
:103D500040F8043B51F8043B40F8043B51F8043B65
:103D600040F8043B403ABDD2303211D351F8043B05
:103D700040F8043B51F8043B40F8043B51F8043B45
:103D800040F8043B51F8043B40F8043B103AEDD2B4
:103D90000C3205D351F8043B40F8043B043AF9D205
:103DA00004320AD0D2071CBF11F8013B00F8013BD6
:103DB00003D30B7803704B78437001BC704700BF8E
:103DC0000C2A4AD310F0030311D0C3F10403D21A12
:103DD000DB071CBF11F8013B00F8013B07D311F8CA
:103DE000013B00F8013B11F8013B00F8013B11F0E9
:103DF00003033FF475AF30B4043AC91AC3F1040C9D
:103E000051F8044B022B19D0032B0BD0240A51F884
:103E1000043B1D0644EA050440F8044B1C46043AE2
:103E2000F4D216E0240E51F8043B1D0244EA0504C6
:103E300040F8044B1C46043AF4D20AE0240C51F832
:103E4000043B1D0444EA050440F8044B1C46043AB4
:103E5000F4D20432B1EB0C0130BC043AA0D3013AE5
:103E600011F8013B00F8013BF9D20B7803704B7855
:103E700043708B78837001BC704700BFF0B44D1E57
:103E80002E46002400E00134B0FBF2F302FB1300E5
:103E9000092800F130078ABF3730F8B2C0B206F8FF
:103EA000010F1846002BEED10A1953704CB110784F
:103EB00015F8016F28700133E01A834202F8016996
:103EC000F5DB0846F0BC704770B584B072B6194B8C
:103ED000194D1A48702241260F2480211A702E7025
:103EE0001A460470197013781B06FCD5144B186819
:103EF00062B6144B144C984298BF00EB800001A9A5
:103F000098BF40000A22FFF7B9FF01A9204600230D
:103F100011F8012B01333AB10A2B20F8022FF7D107
:103F20001623237004B070BD5B00DBB2237004B0B5
:103F300070BD00BF000002400700024006000240C2
:103F4000080002407F9698000088FF1F704700BF5E
:103F50000B460146184600F0FDBF00BF81F000414E
:103F600002E000BF83F0004330B54FEA41044FEA5E
:103F7000430594EA050F08BF90EA020F1FBF54EAF9
:103F8000000C55EA020C7FEA645C7FEA655C00F095
:103F9000E2804FEA5454D4EB5555B8BF6D420CDD66
:103FA0002C4480EA020281EA030382EA000083EAE9
:103FB000010180EA020281EA0303362D88BF30BD89
:103FC00011F0004F4FEA01314FF4801C4CEA1131DF
:103FD00002D0404261EB410113F0004F4FEA03333E
:103FE0004CEA133302D0524263EB430394EA050FC9
:103FF00000F0A780A4F10104D5F1200E0DDB02FA38
:104000000EFC22FA05F2801841F1000103FA0EF2CB
:10401000801843FA05F359410EE0A5F120050EF191
:10402000200E012A03FA0EFC28BF4CF0020C43FAC2
:1040300005F3C01851EBE37101F0004507D54FF0CF
:10404000000EDCF1000C7EEB00006EEB0101B1F51F
:10405000801F1BD3B1F5001F0CD349085FEA300065
:104060004FEA3C0C04F101044FEA445212F5800F70
:1040700080F09A80BCF1004F08BF5FEA500C50F10D
:10408000000041EB045141EA050130BD5FEA4C0CF0
:10409000404141EB010111F4801FA4F10104E9D179
:1040A00091F0000F04BF01460020B1FA81F308BF70
:1040B0002033A3F10B03B3F120020CDA0C3208DD3C
:1040C00002F1140CC2F10C0201FA0CF021FA02F117
:1040D0000CE002F11402D8BFC2F1200C01FA02F187
:1040E00020FA0CFCDCBF41EA0C019040E41AA2BFAC
:1040F00001EB0451294330BD6FEA04041F3C1CDA74
:104100000C340EDC04F11404C4F1200220FA04F093
:1041100001FA02F340EA030021FA04F345EA03013D
:1041200030BDC4F10C04C4F1200220FA02F001FAFF
:1041300004F340EA0300294630BD21FA04F0294681
:1041400030BD94F0000F83F4801306BF81F480111A
:104150000134013D4EE77FEA645C18BF7FEA655C8D
:1041600029D094EA050F08BF90EA020F05D054EA5F
:10417000000C04BF1946104630BD91EA030F1EBF64
:104180000021002030BD5FEA545C05D14000494168
:1041900028BF41F0004130BD14F580043CBF01F55B
:1041A000801130BD01F0004545F0FE4141F4700141
:1041B0004FF0000030BD7FEA645C1ABF194610461C
:1041C0007FEA655C1CBF0B46024650EA013406BF1D
:1041D00052EA033591EA030F41F4002130BD00BFDC
:1041E00090F0000F04BF0021704730B54FF4806499
:1041F00004F132044FF000054FF0000150E700BF1A
:1042000090F0000F04BF0021704730B54FF4806478
:1042100004F1320410F0004548BF40424FF0000165
:104220003EE700BF42004FEAE2014FEA31014FEAA8
:1042300002701FBF12F07F4393F07F4F81F06051F7
:10424000704792F0000F14BF93F07F4F704730B566
:104250004FF4607401F0004521F0004120E700BFF9
:1042600050EA010208BF704730B54FF000050AE080
:1042700050EA010208BF704730B511F0004502D581
:10428000404261EB41014FF4806404F132045FEA83
:10429000915C3FF4DCAE4FF003025FEADC0C18BF28
:1042A00003325FEADC0C18BF033202EBDC02C2F11E
:1042B000200300FA03FC20FA02F001FA03FE40EAB0
:1042C0000E0021FA02F11444C1E600BF70B54FF0B0
:1042D000FF0C4CF4E06C1CEA11541DBF1CEA135592
:1042E00094EA0C0F95EA0C0F00F0DEF82C4481EAFA
:1042F000030621EA4C5123EA4C5350EA013518BF1A
:1043000052EA033541F4801143F4801338D0A0FB06
:1043100002CE4FF00005E1FB02E506F00042E0FBB3
:1043200003E54FF00006E1FB03569CF0000F18BFB9
:104330004EF0010EA4F1FF04B6F5007F64F5407461
:1043400004D25FEA4E0E6D4146EB060642EAC621F4
:1043500041EA55514FEAC52040EA5E504FEACE2E61
:10436000B4F1FD0C88BFBCF5E06F1ED8BEF1004F64
:1043700008BF5FEA500E50F1000041EB045170BDE0
:1043800006F0004646EA010140EA020081EA030124
:10439000B4EB5C04C2BFD4EB0C0541EA045170BD20
:1043A00041F480114FF0000E013C00F3AB8014F19A
:1043B000360FDEBF002001F0004170BDC4F10004E3
:1043C000203C35DA0C341BDC04F11404C4F1200564
:1043D00000FA05F320FA04F001FA05F240EA0200BF
:1043E00001F0004221F0004110EBD37021FA04F6F5
:1043F00042EB06015EEA430E08BF20EAD37070BDAF
:10440000C4F10C04C4F1200500FA04F320FA05F00D
:1044100001FA04F240EA020001F0004110EBD3700F
:1044200041F100015EEA430E08BF20EAD37070BD7F
:10443000C4F1200500FA05F24EEA020E20FA04F358
:1044400001FA05F243EA020321FA04F001F0004107
:1044500021FA04F220EA020000EBD3705EEA430E78
:1044600008BF20EAD37070BD94F0000F0FD101F0A7
:104470000046400041EB010111F4801F08BF013CE0
:10448000F7D041EA060195F0000F18BF704703F01E
:104490000046520043EB030313F4801F08BF013DA5
:1044A000F7D043EA0603704794EA0C0F0CEA135561
:1044B00018BF95EA0C0F0CD050EA410618BF52EA1B
:1044C0004306D1D181EA030101F000414FF0000021
:1044D00070BD50EA410606BF1046194652EA43062F
:1044E00019D094EA0C0F02D150EA013613D195EAA3
:1044F0000C0F05D152EA03361CBF104619460AD1EB
:1045000081EA030101F0004141F0FE4141F47001F4
:104510004FF0000070BD41F0FE4141F4780170BDE4
:1045200070B54FF0FF0C4CF4E06C1CEA11541DBF49
:104530001CEA135594EA0C0F95EA0C0F00F0A7F84B
:10454000A4EB050481EA030E52EA03354FEA013178
:1045500000F088804FEA03334FF0805545EA13138B
:1045600043EA12634FEA022245EA111545EA106553
:104570004FEA00260EF000419D4208BF964244F1EA
:10458000FD0404F5407402D25B084FEA3202B61A09
:1045900065EB03055B084FEA32024FF480104FF4DD
:1045A000002CB6EB020E75EB030E22BFB61A754651
:1045B00040EA0C005B084FEA3202B6EB020E75EBE4
:1045C000030E22BFB61A754640EA5C005B084FEA4C
:1045D0003202B6EB020E75EB030E22BFB61A754619
:1045E00040EA9C005B084FEA3202B6EB020E75EB24
:1045F000030E22BFB61A754640EADC0055EA060EE5
:1046000018D04FEA051545EA16754FEA06164FEA27
:10461000C30343EA52734FEAC2025FEA1C1CC0D1D3
:1046200011F4801F0BD141EA00014FF000004FF060
:10463000004CB6E711F4801F04BF01430020B4F121
:10464000FD0C88BFBCF5E06F3FF6AFAEB5EB030CD9
:1046500004BFB6EB020C5FEA500C50F1000041EBD6
:10466000045170BD0EF0004E4EEA113114EB5C04A3
:10467000C2BFD4EB0C0541EA045170BD41F4801176
:104680004FF0000E013C90E645EA060E8DE60CEA7E
:10469000135594EA0C0F08BF95EA0C0F3FF43BAF9B
:1046A00094EA0C0F0AD150EA01347FF434AF95EA52
:1046B0000C0F7FF425AF104619462CE795EA0C0F36
:1046C00006D152EA03353FF4FDAE1046194622E703
:1046D00050EA410618BF52EA43067FF4C5AE50EADD
:1046E00041047FF40DAF52EA43057FF4EBAE12E7CD
:1046F0004FF0FF3C06E000BF4FF0010C02E000BFAE
:104700004FF0010C4DF804CD4FEA410C7FEA6C5C90
:104710004FEA430C18BF7FEA6C5C1BD001B050EA33
:10472000410C0CBF52EA430C91EA030F02BF90EA1E
:10473000020F0020704710F1000F91EA030F58BFDD
:10474000994208BF90422CBFD8176FEAE37040F03F
:10475000010070474FEA410C7FEA6C5C02D150EADD
:10476000013C07D14FEA430C7FEA6C5CD6D152EA98
:10477000033CD3D05DF8040B704700BF844610465D
:1047800062468C461946634600E000BF01B5FFF75C
:10479000B7FF002848BF10F1000F01BD4DF808ED2C
:1047A000FFF7F4FF0CBF012000205DF808FB00BFFD
:1047B0004DF808EDFFF7EAFF34BF012000205DF857
:1047C00008FB00BF4DF808EDFFF7E0FF94BF0120A4
:1047D00000205DF808FB00BF4DF808EDFFF7CEFFA5
:1047E00094BF012000205DF808FB00BF4DF808EDE4
:1047F000FFF7C4FF34BF012000205DF808FB00BFB5
:104800004FEA410C7FEA6C5C02D150EA013C0AD1CC
:104810004FEA430C7FEA6C5C02D152EA033C02D1BE
:104820004FF0000070474FF0010070474FEA41021F
:1048300012F5001215D211D56FF47873B3EB6252F2
:1048400012D94FEAC12343F0004343EA505311F019
:10485000004F23FA02F018BF404270474FF00000AB
:10486000704750EA013005D111F0004008BF6FF0E9
:10487000004070474FF00000704700BF4A0011D25F
:1048800012F5001211D20DD56FF47873B3EB6252AA
:104890000ED44FEAC12343F0004343EA505323FAB6
:1048A00002F070474FF00000704750EA013002D12B
:1048B0004FF0FF3070474FF0000070474FEA410261
:1048C000B2F1E04324BFB3F5001CDCF1FE5C0DD96E
:1048D00001F0004C4FEAC0024CEA5070B2F1004FB8
:1048E00040EB830008BF20F00100704711F0804FBB
:1048F00021D113F13872BCBF01F00040704741F480
:1049000080114FEA5252C2F11802C2F1200C10FA83
:104910000CF320FA02F018BF40F001004FEAC12367
:104920004FEAD32303FA0CFC40EA0C0023FA02F30B
:104930004FEA4303CCE77FEA625307D150EA0133E1
:104940001EBF4FF0FE4040F44000704701F00040B1
:1049500040F0FE4040F40000704700BF80F000408F
:1049600002E000BF81F0004142001FBF5FEA410347
:1049700092EA030F7FEA226C7FEA236C6AD04FEA47
:104980001262D2EB1363C1BFD2184140484041408C
:10499000B8BF5B42192B88BF704710F0004F40F43E
:1049A000000020F07F4018BF404211F0004F41F45A
:1049B000000121F07F4118BF494292EA030F3FD026
:1049C000A2F1010241FA03FC10EB0C00C3F1200339
:1049D00001FA03F100F0004302D5494260EB4000C8
:1049E000B0F5000F13D3B0F1807F06D340084FEA33
:1049F000310102F10102FE2A51D2B1F1004F40EB28
:104A0000C25008BF20F0010040EA0300704749008F
:104A100040EB000010F4000FA2F10102EDD1B0FA5A
:104A200080FCACF1080CB2EB0C0200FA0CF0AABF4F
:104A300000EBC25052421843BCBFD04018437047ED
:104A400092F0000F81F4000106BF80F400000132F3
:104A5000013BB5E74FEA41037FEA226C18BF7FEACA
:104A6000236C21D092EA030F04D092F0000F08BF0C
:104A70000846704790EA010F1CBF0020704712F0F3
:104A80007F4F04D1400028BF40F00040704712F132
:104A900000723CBF00F50000704700F0004343F097
:104AA000FE4040F4000070477FEA226216BF0846CD
:104AB0007FEA23630146420206BF5FEA412390EA90
:104AC000010F40F4800070474FF0000304E000BF86
:104AD00010F0004348BF40425FEA000C08BF704737
:104AE00043F0964301464FF000001CE050EA0102FB
:104AF00008BF70474FF000030AE000BF50EA010210
:104B000008BF704711F0004302D5404261EB4101FC
:104B10005FEA010C02BF84460146002043F0B64321
:104B200008BFA3F18053A3F50003BCFA8CF2083A46
:104B3000A3EBC25310DB01FA02FC634400FA02FC4F
:104B4000C2F12002BCF1004F20FA02F243EB020056
:104B500008BF20F00100704702F1200201FA02FCB8
:104B6000C2F1200250EA4C0021FA02F243EB0200AB
:104B700008BF20EADC7070474FF0FF0C1CEAD052EF
:104B80001EBF1CEAD15392EA0C0F93EA0C0F6FD0B0
:104B90001A4480EA010C400218BF5FEA41211ED08E
:104BA0004FF0006343EA501043EA5111A0FB01317A
:104BB0000CF00040B1F5000F3EBF490041EAD3714F
:104BC0005B0040EA010062F17F02FD2A1DD8B3F1CB
:104BD000004F40EBC25008BF20F00100704790F03A
:104BE000000F0CF0004C08BF49024CEA502040EA8C
:104BF00051207F3AC2BFD2F1FF0340EAC250704752
:104C000040F400004FF00003013A5DDC12F1190F8F
:104C1000DCBF00F000407047C2F10002410021FA01
:104C200002F1C2F1200200FA02FC5FEA310040F119
:104C3000000053EA4C0308BF20EADC70704792F092
:104C4000000F00F0004C02BF400010F4000F013ACA
:104C5000F9D040EA0C0093F0000F01F0004C02BFC5
:104C6000490011F4000F013BF9D041EA0C018FE734
:104C70000CEAD15392EA0C0F18BF93EA0C0F0AD03A
:104C800030F0004C18BF31F0004CD8D180EA010060
:104C900000F00040704790F0000F17BF90F0004FF9
:104CA000084691F0000F91F0004F14D092EA0C0FDB
:104CB00001D142020FD193EA0C0F03D14B0218BF6E
:104CC000084608D180EA010000F0004040F0FE40B4
:104CD00040F40000704740F0FE4040F44000704750
:104CE0004FF0FF0C1CEAD0521EBF1CEAD15392EACF
:104CF0000C0F93EA0C0F69D0A2EB030280EA010CBF
:104D000049024FEA402037D04FF0805343EA111157
:104D100043EA10130CF000408B4238BF5B0042F1B5
:104D20007D024FF4000C8B4224BF5B1A40EA0C005A
:104D3000B3EB510F24BFA3EB510340EA5C00B3EB8C
:104D4000910F24BFA3EB910340EA9C00B3EBD10F7A
:104D500024BFA3EBD10340EADC001B0118BF5FEACC
:104D60001C1CE0D1FD2A3FF650AF8B4240EBC250F5
:104D700008BF20F0010070470CF0004C4CEA5020B6
:104D80007F32C2BFD2F1FF0340EAC250704740F405
:104D900000004FF00003013A37E792F0000F00F0F7
:104DA000004C02BF400010F4000F013AF9D040EA75
:104DB0000C0093F0000F01F0004C02BF490011F409
:104DC000000F013BF9D041EA0C0195E70CEAD15301
:104DD00092EA0C0F08D142027FF47DAF93EA0C0FE8
:104DE0007FF470AF084676E793EA0C0F04D14B02CC
:104DF0003FF44CAF08466EE730F0004C18BF31F07E
:104E0000004CCAD130F000427FF45CAF31F0004377
:104E10007FF43CAF5FE700BF4FF0FF3C06E000BF10
:104E20004FF0010C02E000BF4FF0010C4DF804CD33
:104E30004FEA40024FEA41037FEA226C18BF7FEA43
:104E4000236C11D001B052EA530C18BF90EA010F45
:104E500058BFB2EB030088BFC81738BF6FEAE170D4
:104E600018BF40F0010070477FEA226C02D15FEA70
:104E7000402C05D17FEA236CE4D15FEA412CE1D0DC
:104E80005DF8040B704700BF844608466146FFE7A3
:104E90000FB5FFF7C9FF002848BF10F1000F0FBD85
:104EA0004DF808EDFFF7F4FF0CBF012000205DF87E
:104EB00008FB00BF4DF808EDFFF7EAFF34BF012003
:104EC00000205DF808FB00BF4DF808EDFFF7E0FF9C
:104ED00094BF012000205DF808FB00BF4DF808EDED
:104EE000FFF7D2FF94BF012000205DF808FB00BF50
:104EF0004DF808EDFFF7C8FF34BF012000205DF832
:104F000008FB00BF42000ED2B2F1FE4F0BD34FF0B0
:104F10009E03B3EB126209D44FEA002343F000432F
:104F200023FA02F070474FF00000704712F1610F52
:104F300001D1420202D14FF0FF3070474FF0000024
:104F4000704700BF002101F081BD00BF0A2200218F
:104F500001F02ABE13460A460146022001F048BE6F
:104F6000014B1868704700BF408CFF1F70B50F4E93
:104F70000F4D761BB61018BF002405D0013455F82C
:104F8000043B9847A642F9D10A4E0B4D761B03F01D
:104F9000F7FDB61018BF002406D0013455F8043BC5
:104FA0009847A642F9D170BD70BD00BF8C8B000040
:104FB0008C8B00009C8B00008C8B0000D0F8EC00E8
:104FC000704700BF024B0146186800F003B800BFED
:104FD000408CFF1F2DE9F04F01F10B05162D83B01A
:104FE000064640F29F8035F0070500F1BF80A942D8
:104FF00000F2BC8000F00AFBB5F5FC7FC0F09C829B
:105000006B0A00F0BA80042B00F28381A80900F13A
:10501000390E4FEA4E033830C44F07EB8303A3F138
:1050200008015C68A14207D1ACE0002A80F2AC80A4
:10503000E468A14200F0A680636823F003035A1BD2
:105040000F2AF2DDB9493C6901F1080E744500F000
:10505000B381636823F003035A1B0F2A00F399817D
:10506000002AC1F814E0C1F810E080F29E80B3F588
:10507000007F80F06781DB0803F1010C01229B10A7
:1050800002FA03F34A6851F83C80C4F8088001EB47
:10509000CC091A43A9F10803E3604A6041F83C4097
:1050A000C8F80C40831001249C40944200F28A808E
:1050B000144206D120F003006400144200F1040001
:1050C000FAD007EBC009CC468046DCF80C108C45C2
:1050D00007D173E1002A80F28181C9688C4500F014
:1050E0006D814B6823F003035A1B0F2AF2DD0C4637
:1050F000D1F80CC054F8088F4B1945F001054D60EC
:1051000042F00101C8F80CC03046CCF808807B6141
:105110003B61C3F80CE0C3F808E059609A5000F016
:1051200077FA1FE0102921D800F070FA1025062325
:1051300002207E4F07EB8303A3F108025C689442D0
:1051400000F045816368E168A56823F00303234408
:1051500030465A68E96042F001028D605A6000F002
:1051600057FA0834204603B0BDE8F08F00240C2322
:105170002046336003B0BDE8F08F80234FF0400E2F
:105180003F2049E770465DE72344E1685A68A56817
:1051900042F00102E96030468D605A6000F038FA52
:1051A0000834204603B0BDE8F08F234430465A68E7
:1051B00042F001025A6000F02BFA0834204603B096
:1051C000BDE8F08FBC68636823F00308A84504D3EA
:1051D000C5EB08030F2B00F38C80554BDFF8609173
:1051E0001A68D9F8003001332A4404EB080A00F0A9
:1051F000608102F580520F3222F47F6222F00F02AA
:1052000011463046019200F005FAB0F1FF3F8346A7
:10521000019A00F05881824500F2FC80454B1968E4
:10522000DA451144196000F05381D9F80000DFF825
:1052300010E101301BBFCAEB0B0A5144CEF800B09D
:1052400019601BF0070100F01781C1F10800C1F5DA
:105250008051834408315A44C2F30B02C2EB010966
:1052600049463046019300F0D5F9431C019B00F0FC
:105270003F81CBEB00024A4442F001021968C7F8B3
:1052800008B04944BC42CBF804201960DFF8A49070
:1052900016D0B8F10F0F40F2FD806268A8F10C0340
:1052A00023F00703E01802F001024FF0050E1A4345
:1052B0000F2B6260C0F804E0C0F808E000F21C8127
:1052C0001D4BBC681A68914288BF19601B4B1A6855
:1052D0009142626888BF196022F003029542A2EBF6
:1052E000050301D80F2B04DC304600F091F90024AF
:1052F00038E7621943F0010345F001056560304667
:10530000BA60536000F084F90834204603B0BDE869
:10531000F08F142B71D9542B00F2A480280B00F1CC
:105320006F0E4FEA4E036E3076E600BFB08DFF1F62
:10533000D4B5FF1FD8B5FF1FD0B5FF1FCCB5FF1FD9
:10534000BC91FF1F5A0A042A5ED9142A00F2B380C6
:1053500002F15C0149005B3207EB810C57F8211028
:10536000DFF8DC81ACF1080C8C4500F088804A68DD
:1053700022F00302934202D289688C45F7D1D1F81A
:105380000CC07A68C4F80CC0A160CCF80840CC60AE
:1053900088E6631942F0010745F001056560304673
:1053A0004B610B61C3F80CE0C3F808E05F609A50F2
:1053B000083400F02DF9D5E64A6873E608F10108D3
:1053C00018F0030F0CF1080C7FF47FAE30E0DC68BE
:1053D000A34208BF02303FF435AEB3E60B440C469F
:1053E0005A68C96854F8085F42F001025A603046B2
:1053F000E9608D6000F00CF9B4E603F15C0E03F196
:105400005B004FEA4E0307E69A0902F139014900B1
:105410003832A1E7BC424A4B3FF400AF9C68626857
:1054200022F003025AE759F80839994540F0828082
:1054300010F0030F00F1FF30F5D17B6823EA04037D
:105440007B6064009C423FF6BDAE002C3FF4BAAED8
:105450001C4240467FF435AE64001C4200F104005B
:10546000FAD02EE6B3F5AA7F18D8E80B00F1780E33
:105470004FEA4E037730CFE54FF48051EBE6012140
:10548000D8F80430921001FA02F21A43C8F8042046
:10549000614677E70123CBF8043025E740F2545208
:1054A000934220D8A80C00F17D0E4FEA4E037C30C9
:1054B000B2E51032A4E6542A26D81A0B02F16F0185
:1054C00049006E3248E7BC68626822F0030205E7D3
:1054D000CAF30B0000287FF4A8AE4244BB6842F038
:1054E00001025A60ECE6FE234FF07F0E7E2093E52A
:1054F00001224FF00009C1E604F10801304601F035
:105500003BFCD9F80010DBE6B2F5AA7F05D8DA0B30
:1055100002F17801490077321EE740F254518A4285
:1055200005D89A0C02F17D0149007C3214E7FE2176
:105530007E2211E77B6884E7E808431C5B00F8E5FE
:10554000B08DFF1F82B049B15AB16BB113780B60B7
:105550001278101C18BF012002B0704701A9002A60
:10556000F3D1104602B070476FF00100F4E700BFBE
:1055700070B4840746D0541E002A41D0CDB20346F1
:1055800002E0621EE4B3144603F8015B9A07F8D107
:10559000032C2ED9CDB245EA05250F2C45EA054549
:1055A00019D903F110022646103E0F2E42F8105C66
:1055B00042F80C5C42F8085C42F8045C02F110020C
:1055C000F2D8A4F1100222F00F0204F00F041032FE
:1055D000032C13440DD91E462246043A032A46F8EA
:1055E000045BFAD8221F22F003020432134404F0B1
:1055F00003042CB1C9B21C4403F8011BA342FBD124
:1056000070BC704714460346C2E700BF704700BF36
:10561000704700BF38B5074C002305460846236095
:10562000FCF754FF431C00D038BD2368002BFBD08F
:105630002B6038BD14B6FF1F70B411F0FF0434D0D6
:1056400085070FD00378002B5AD09C422BD0431CE7
:1056500005E013F8012B002A4FD0944223D09A077B
:105660001846F6D10E0206F47F462643036846EA42
:10567000064601E050F8043F86EA0305A5F1013231
:10568000A3F1013122EA050221EA0303134313F0D7
:10569000803FEFD0037823B932E010F8013F002BB0
:1056A0002ED09C42F9D170BC704784070BD0037890
:1056B000002BF8D0431C03E002780133002AF2D01B
:1056C00099071846F8D10268A2F1013323EA0203D0
:1056D00013F0803F08D150F8042FA2F1013323EAE0
:1056E000020313F0803FF6D00378002BDBD010F8D4
:1056F000013F002BFBD170BC7047104670BC704757
:10570000184670BC704700BFFFFFFFFFFFFFFFFFA1
:10571000FFFFFFFFFFFFFFFFFFFFFFFFFFFFFFFF99
:10572000A2EB0300704700BF02780B78012A28BF64
:105730009A42F5D16DE9044540EA0104CDE90267DA
:105740006FF0000C4FEA447212B380EA010414F0C7
:10575000070F6AD100F0070420F0070004F00305EA
:1057600021F007014FEAC505F0E8042314F0040F07
:10577000F1E804670CFA05F462EA040266EA04063A
:105780000AD063EA0403624667EA0407664603E058
:10579000F0E80423F1E8046782FA4CF582EA060493
:1057A000A4FA8CF46CBB83FA4CF583EA0705A5FADE
:1057B0008CF595B950E9022351E9026782FA4CF55C
:1057C00082EA0604A4FA8CF483FA4CF583EA07050E
:1057D000A5FA8CF52543DBD09CB92DBAB5FA85F432
:1057E00024F0070427FA04F1DDE9026723FA04F341
:1057F00003F0FF0001F0FF01FDE80445A0EB01000C
:10580000704724BAB4FA84F424F0070426FA04F1A9
:10581000DDE9026722FA04F202F0FF0001F0FF0165
:10582000FDE80445A0EB0100704714F0030F3CD1E4
:1058300010F0030428D150F8082B51F8083B82FAE5
:105840004CF582EA0305A5FA8CF55DB950F8042CF5
:1058500051F8043C82FA4CF582EA0305A5FA8CF56E
:10586000002DE8D02DBAB5FA85F424F0070423FA08
:1058700004F122FA04F202F0FF0001F0FF01FDE85A
:105880000445A0EB010070474FEAC40420F0030078
:1058900050F8082B21F0030151F8083B0CFA04F4EE
:1058A00062EA040263EA0403C9E710F003041AD0B1
:1058B000A1EB040120F00300E40750F8042B06D00C
:1058C0000FD28B785FFAA2F4E41A06D12BB1CB7811
:1058D0005FFAB2F4E41A00D11BB920465DF8104B10
:1058E000704701F1040150F8042BCC0721F00301AB
:1058F00051F8043B48D824D222F07F4482FA4CF578
:1059000094EA1325A5FA8CF50AD165B951F8043B40
:1059100084EA0204B4EB036F0ED150F8042BEBE7DA
:105920004FEA132355E035F07F454DD10878FDE867
:105930000445C0F1000070474FEA126203F0FF0314
:1059400047E002EA1C4482FA4CF594EA1345A5FAB2
:105950008CF50AD165B951F8043B84EA0204B4EB32
:10596000034F0CD150F8042BEBE74FEA134330E020
:1059700015EA1C4528D10B884FEA124229E04FEA6C
:10598000124203EA1C4324E002F0FF0482FA4CF5C1
:1059900094EA1365A5FA8CF50AD165B951F8043B70
:1059A00084EA0204B4EB032F09D150F8042BEBE78F
:1059B0004FEA13630DE015F0FF0F05D10B684FEAB6
:1059C000122223F07F4304E04FF00000FDE804457D
:1059D000704712BA1BBA82FA4CF482EA0304A4FAA2
:1059E0008CF5B5FA85F402FA04F203FA04F34FEAEF
:1059F0001260FDE80445A0EB13607047FFFFFFFF56
:105A000090F800F06DE9024520F007016FF0000CFE
:105A100010F0070491F820F040F049804FF00004A6
:105A20006FF00700D1E9002391F840F000F1080081
:105A300082FA4CF2A4FA8CF283FA4CF3A2FA8CF3B9
:105A40004BBBD1E9022382FA4CF200F10800A4FA20
:105A50008CF283FA4CF3A2FA8CF3E3B9D1E9042374
:105A600082FA4CF200F10800A4FA8CF283FA4CF3AB
:105A7000A2FA8CF37BB9D1E9062301F1200182FA65
:105A80004CF200F10800A4FA8CF283FA4CF3A2FA6B
:105A90008CF3002BC6D0002A04BF04301A4612BA79
:105AA000B2FA82F2FDE8024500EBD2007047D1E97C
:105AB000002304F00305C4F100004FEAC50514F00B
:105AC000040F91F840F00CFA05F562EA05021CBFDC
:105AD00063EA050362464FF00004A9E7002A41D0BB
